:020000040800F2
:1000000050130020A1010008C1300008632A000835
:10001000BD3000084D0700083B3D0008000000000F
:100020000000000000000000000000005B3100083C
:100030005107000800000000C53000085D310008CD
:10004000BB010008BB010008BB010008BB010008A0
:10005000BB010008BB010008BB010008BB01000890
:10006000BB010008BB010008BB010008BB01000880
:10007000BB010008BB010008BB010008BB01000870
:10008000BB010008BB010008BB010008BB01000860
:10009000BB010008BB010008BB010008BB01000850
:1000A000BB010008BB010008BB0100083132000899
:1000B00001340008BB01000811340008BB0100082E
:1000C000BB010008BB010008BB010008BB01000820
:1000D000BB010008BB010008BB010008BB01000810
:1000E000BB010008BB010008BB010008BB01000800
:1000F000BB010008BB010008BB010008BB010008F0
:10010000BB010008BB010008BB010008BB010008DF
:10011000BB010008BB010008BB010008BB010008CF
:10012000BB010008BB010008BB010008BB010008BF
:10013000BB010008BB010008BB010008BB010008AF
:10014000BB010008BB010008BB010008BB0100089F
:10015000BB010008BB010008BB010008BB0100088F
:10016000BB010008BB010008BB010008BB0100087F
:10017000BB010008BB010008BB0100080000000033
:10018000BB010008BB010008DFF810D000F0CCFA7A
:100190000048004755460008AFF300805013002088
:1001A0000648804706480047FEE7FEE7FEE7FEE711
:1001B000FEE7FEE7FEE7FEE7FEE7FEE71D3200088A
:1001C000890100082DE9F05F0546002092469B4614
:1001D00088460646814640241BE02846414647465D
:1001E000224600F0F2F953465A46C01A914110D304
:1001F00011461846224600F0D9F92D1A67EB01087E
:100200004F4622460120002100F0D0F917EB0009EB
:100210004E41201EA4F10104DFDC484631462A4647
:100220004346BDE8F09FD2B201E000F8012B491E21
:10023000FBD270470022F6E710B513460A46044683
:100240001946FFF7F0FF204610BD2DE9FE4F80460E
:1002500081EA0300C00F0C46009021F0004123F01A
:100260000045B8EB0200A94105D240462146904620
:100270001C460B46024623F00040104347D0270D92
:10028000C7F30A00C3F30A510290401A01904028B4
:100290006BDAC3F3130040F4801B0098924620B140
:1002A0000023D2EB030A63EB0B0B01985946C0F114
:1002B0004002504600F07AF906460D46504659462F
:1002C000019A00F092F910EB08006141002487EADE
:1002D000115284EAE7731A4340D0009A62B3019A3C
:1002E000012A4FEA075215DC001B61EB02014FF0B7
:1002F000004202EA0752CDE90042001C41F580119C
:1003000032462B4600F092F903B0BDE8F08F40462C
:100310002146F9E7001B61EB0201001C41F5801347
:1003200000185B412018A2F5001747EB030140EAD3
:10033000D570B6196D4111E06D084FEA360645EAF1
:10034000C0754FEA0752001B61EB0201001C41F52A
:10035000801149084FEA30000019514132462B46BE
:1003600003B0BDE8F04F00F052B900980122400000
:100370000023D0EB020263EBE073009821464FEAC2
:10038000E074B8EB000061EB0401E9E783F000439F
:100390005BE781F0004158E72DE9FE4F81EA030455
:1003A00004F0004421F0004100944FF0000B23F0D2
:1003B000004350EA01045ED052EA03045BD0C3F369
:1003C0000A54C1F30A552C44A4F2F3340194A0FB5F
:1003D0000254C1F3130141F48011C3F3130343F436
:1003E000801301FB024400FB034E840A970A44EA8F
:1003F000815447EA8357A4FB076802958D0A05FBE1
:1004000007854FEA932C04FB0C542705029D4FEA05
:10041000065847EA1637B5EB08056EEB070C870E52
:10042000920E47EA811742EA8312A7FB0201B6EB5C
:100430000B0164EB00042B0D43EA0C335E1844EB14
:100440001C50DA465146E7FB0201C5F313044FEA9C
:100450000B3343EA14534FEA0432019C43EA060388
:10046000A4F10C040294009CCDE900B400F0DEF885
:1004700003B0BDE8F08F00200146F9E72DE9F04D0B
:1004800081EA030404F0004B21F0004514464FF0CC
:10049000000A23F0004150EA050220D054EA01028C
:1004A0001DD0C5F30A570246C5F31303C1F3130069
:1004B000C1F30A5640F4801543F48013A7EB0608F5
:1004C000101BD64608F2FD3873EB050002D308F185
:1004D000010801E092185B41B8F1000F03DA002037
:1004E0000146BDE8F08D00204FF480110646844699
:1004F0000EE0171B73EB050705D3121B63EB050317
:1005000006434CEA010C49084FEA300092185B415F
:1005100050EA0107EDD152EA030012D082EA04004A
:1005200083EA0501084305D0101BAB4106D2012226
:10053000002306E000224FF0004302E06FF00102CA
:1005400053101AEB06004CEB085110EB0A0041EB7C
:100550000B01BDE8F04D00F05AB800F0004230F059
:1005600000400AD0C10D01F56071C0F3160042EAE7
:100570000151C208400711437047002001467047EF
:1005800030B50B46014600202022012409E021FA63
:1005900002F59D4205D303FA02F5491B04FA02F560
:1005A0002844151EA2F10102F1DC30BD202A04DB33
:1005B000203A00FA02F1002070479140C2F1200376
:1005C00020FA03F3194390407047202A04DB203AB5
:1005D00021FA02F00021704721FA02F3D040C2F163
:1005E00020029140084319467047202A06DBCB17AA
:1005F000203A41FA02F043EAE07306E041FA02F3DE
:10060000D040C2F12002914008431946704710B50E
:10061000141E73F1000408DA401C41F10001921825
:100620005B411A4301D120F0010010BD2DE9F04DCE
:1006300092469B4611B1B1FA81F202E0B0FA80F223
:1006400020329046FFF7B2FF04460F4640EA0A0008
:1006500041EA0B0153465A46084313D0114653EA68
:10066000010019D0C8F140025046FFF7AEFF054621
:100670000E46504659464246FFF798FF084305D0BC
:10068000012004E020463946BDE8F08D00200543F6
:1006900046EAE0762C4337430A986305E40AA0EB68
:1006A00008000022FD0A44EA47540A3002D500201F
:1006B0000146E9E7010510196941DDE9084500191E
:1006C0006941BDE8F04DA2E7C1F30A52C1F313013D
:1006D00040F2FF3341F480119A4202DA00200146D1
:1006E000704740F233439A42A2F2334202DC524254
:1006F000FFF76BBFFFF75ABF30B5041E71F100045E
:1007000004DB4FF00044404264EB0101141E73F11E
:10071000000405DB1C464FF00043524263EB040328
:10072000994208BF904230BD064C074D06E0E06894
:1007300040F0010394E8070098471034AC42F6D328
:10074000FFF726FDCC460008EC46000800BFFEE798
:10075000704772B600BFFEE700B52DED028B85B085
:10076000B0EE408A6846B0EE480A00F00DF84FF649
:10077000FF7314226946034802F00AF905B0BDEC84
:10078000028B00BD8002002070B52DED048BB0EE11
:10079000408A044618EE100AFFF7DFFE41EC190B01
:1007A00053EC192B03A1204603F0CAFA85B2BDEC25
:1007B000048B70BD25660A0070B5044600F010F980
:1007C00006462546681C10B104480078054400BF61
:1007D00000F006F9801BA842FAD370BD3800002053
:1007E000F8B502460B460025002400200021D6E083
:1007F000012606FA01F51E6806EA0504AC4274D12A
:100800001E7906F00306012E04D01E7906F00306B9
:10081000022E13D190684F000326BE40B0434F0014
:10082000DE68BE4030439060506801268E40B04381
:100830001E79C6F300168E40304350601E7906F0D4
:100840000306032E09D0D0684F000326BE40B043F4
:100850004F009E68BE403043D0601E7906F003060C
:10086000022E13D1CF0802F1200656F827004E07BA
:10087000F70E0F26BE40B0434F07FF0E1E69BE4065
:100880003043CF0802F1200646F8270010684F00D9
:100890000326BE40B0431E7906F003064F00BE405B
:1008A000304310605E6806F44036002E76D000BFFC
:1008B000002600963C4E366846F480463A4F3E602D
:1008C0003E46366806F48046009600BF00BF374EAD
:1008D0008F0856F827008E07370F0F26BE40B0430B
:1008E000334EB24202D1002624E057E0314EB242EC
:1008F00001D101261EE0304EB24201D1022619E09C
:100900002E4EB24201D1032614E02D4EB24201D147
:1009100004260FE02B4EB24201D105260AE02A4EF2
:10092000B24201D1062605E0284EB24201D1072687
:1009300000E008268F073F0FBE4030431B4E8F0854
:1009400046F82700224E3068A0435E6806F4801601
:1009500006B120431E4E3060361D3068A0435E68ED
:1009600006F4001606B12043194E361D3060184EAD
:10097000361F3068A0435E6806F4003606B1204397
:10098000134E361F3060361F3068A0435E6806F491
:10099000803606B120430E4E083E3060491C1029B7
:1009A000FFF426AFF8BD000044380240083801408B
:1009B000000002400004024000080240000C024017
:1009C000001002400014024000180240001C0240C7
:1009D000083C01400AB1816101E00B04836170476A
:1009E00001480068704700003000002070B50446E0
:1009F0000CB9012070BD94F83D0028B9002084F89E
:100A00003C00204600F0DAF8242084F83D002068FD
:100A1000006820F00100216808602068006840F448
:100A20000040216808602068006820F400402168C8
:100A3000086000F0BDFB05465C496068884206D846
:100A40005B48854201D2012007E0002005E05948BB
:100A5000854201D2012000E00020012800D1C9E731
:100A60005548B5FBF0F62068406820F03F00304361
:100A7000216848604D496068884201D8701C07E0D1
:100A80004FF4967070434FF47A71B0FBF1F0401C54
:100A90002168096A21F03F0108432168086243493F
:100AA0006068884214D8681E61684900B0FBF1F0A4
:100AB000401CC0F30B00042801D204203DE0681E56
:100AC00061684900B0FBF1F0401CC0F30B0034E05A
:100AD000A06838B9681E616801EB4101B0FBF1F014
:100AE000401C0AE0681E616801EBC10202EB0111C3
:100AF000B0FBF1F0401C40F48040C0F30B0008B99B
:100B000001201AE0A06848B9681E616801EB410144
:100B1000B0FBF1F0401CC0F30B000CE0681E6168F4
:100B200001EBC10202EB0111B0FBF1F0401CC0F37C
:100B30000B0040F4804040F400402168C9694CF645
:100B4000FF72914308432168C861D4E90701084353
:100B50002168096821F0C001084321680860D4E9D0
:100B6000031008432168896848F2FF329143084323
:100B700021688860D4E9050108432168C96821F02B
:100B8000FF0108432168C8602068006840F0010048
:100B90002168086000202064202084F83D000020A7
:100BA000206384F83E0000BF24E70000A086010017
:100BB00080841E0000093D0040420F0010B586B041
:100BC0000446142101A8FFF735FB3E4920688842FE
:100BD00040D100BF002000903B48006840F4001066
:100BE000394908600846006800F40010009000BF12
:100BF00000BF00BF0020009033481038006840F06C
:100C000002003149103908600846006800F002000F
:100C1000009000BF00BF4FF440700190122002907E
:100C200001200390032004900420059001A9274887
:100C3000FFF7D6FD00BF002000902348006840F475
:100C40000010214908600846006800F40010009078
:100C500000BF34E01E492068884230D100BF002028
:100C6000009019481038006840F002001649103909
:100C700008600846006800F00200009000BF00BF56
:100C80004FF4406001901220029000200390032056
:100C900004900420059001A90C48FFF7A1FD00BFB6
:100CA000002000900848006840F480000649086071
:100CB0000846006800F48000009000BF00BF06B046
:100CC00010BD0000005400404038024000040240C3
:100CD0000058004003480068034909780844014966
:100CE00008607047300000203800002010B50D4823
:100CF000006840F400700B4908600846006840F442
:100D0000806008600846006840F480700860032036
:100D100000F0A2F80F2000F007F800F02BF80020F8
:100D200010BD0000003C024070B504460E4800783B
:100D30004FF47A71B1FBF0F00C490968B1FBF0F5A2
:100D4000284600F007FF08B1012070BD102C07D223
:100D500000222146501E00F041F80548046001E0E1
:100D60000120F2E70020F0E7380000203C000020DE
:100D70003400002008B500BF002000900E48006835
:100D800040F480400C4908600846006800F4804048
:100D9000009000BF00BF00BF00200090081F006847
:100DA00040F08050091F08600846006800F080503D
:100DB000009000BF00BF08BD44380240014608460D
:100DC000002809DB00F01F0301229A4043099B0021
:100DD00003F1E023C3F8002100BF70472DE9F05F65
:100DE00080460D461646002702F0BEFF07463946EC
:100DF0002A46334601F00700C0F1070ABAF1040F92
:100E000002D94FF0040A01E0C0F1070AD14600F10F
:100E1000040ABAF1070F02D24FF0000A01E0A0F174
:100E2000030AD4464FF0010A0AFA09FAAAF1010AA4
:100E30000AEA020A0AFA0CFA4FF0010B0BFA0CFB51
:100E4000ABF1010B0BEA030B4AEA0B0421464046C7
:100E500002F092FFBDE8F09F00BF00F00702064BD2
:100E600019684FF6FF031940044B0B4343EA022174
:100E7000014B196000BF70470CED00E00000FA055F
:100E8000F8B5044600250026207800F0010020B9BE
:100E9000207800F0040004282FD100205B498866E8
:100EA000FFF79EFD054606E0FFF79AFD401B02286E
:100EB00001D90320F8BD56480068C0F3C06000287F
:100EC000F2D160688101207A41EA00705049843192
:100ED000086001204D498866FFF782FD054606E05F
:100EE000FFF77EFD401B022801D90320E2E74848B6
:100EF0000068C0F3C0600028F2D0207800F0020043
:100F000002287DD100BF0020009041484030006899
:100F100040F080503E49403108600846006800F0CB
:100F20008050009000BF00BF3A48006840F48070D5
:100F300038490860FFF754FD054606E0FFF750FD0D
:100F4000401B022801D90320B4E73248006800F4AE
:100F500080700028F2D02E487030006800F440768F
:100F60004EB3A08900F44070B04224D028487030BD
:100F7000006820F4407601202749086000200860BE
:100F8000234870300660006800F0010098B1FFF758
:100F900027FD054608E0FFF723FD401B41F288319D
:100FA000884201D9032085E7194870300068C0F3F2
:100FB00040000028EFD000BFA08900F44070B0F5D9
:100FC000407F0CD112480830006820F4F810134A12
:100FD000E168114008430E490831086007E00C48F9
:100FE0000830006820F4F810094908310860084802
:100FF00070300068A189C1F30B010843044900E087
:1010000002E07031086000BF002053E70000474253
:101010000038024000700040400E4742FFFCFF0FC6
:1010200070B504460D460CB9012070BD58480068E3
:1010300000F00700A84209D255490D700846006823
:1010400000F00700A84201D00120EEE7207800F070
:10105000020002281DD1207800F00400042805D1E8
:101060004C48006840F4E0504A490860207800F09D
:101070000800082805D14748006840F46040454909
:1010800008604448006820F0F000A1680843414926
:101090000860207800F00100A8B36068012807D13B
:1010A0003C4808380068C0F34040B8B90120BCE7AC
:1010B0006068022802D06068032807D135480838E4
:1010C0000068C0F3406048B90120AEE731480838F5
:1010D0000068C0F3400008B90120A6E72D48006869
:1010E00020F00300616808432A490860FFF778FC94
:1010F000064609E0FFF774FC801B41F28831884204
:1011000002D9032091E707E02248006800F00C00B4
:101110006168B0EB810FEDD11D48006800F0070059
:10112000A84209D91A490D700846006800F0070066
:10113000A84201D0012078E7207800F004000428BC
:1011400007D11448006820F4E050E16808431149D1
:101150000860207800F00800082808D10D480068D1
:1011600020F46040216940EAC1000A49086000F0AB
:101170003FF808490968C1F30311074A515CC840A8
:101180000649086006480068FFF7CEFD00204CE7DE
:10119000003C024008380240B44600083C000020F1
:1011A0003400002001480068704700003C00002027
:1011B00000B5FFF7F7FF04490968C1F38221034A2C
:1011C000515CC84000BD000008380240C446000819
:1011D00000B5FFF7E7FF04490968C1F34231034A4C
:1011E000515CC84000BD000008380240C4460008F9
:1011F0002DE9F047002400250026A1462548006877
:1012000000F00C0020B1042805D008283AD105E0F0
:10121000DFF8849039E0DFF8849036E01D48001F45
:10122000006800F03F041B48001F006800F48000C5
:1012300078B11A481749091F0968C1F38811A0FB42
:1012400001700146224600233846FEF7BBFF0546E3
:101250000EE011480F49091F0968C1F38811A0FB6E
:1012600001700146224600233846FEF7ABFF0546D3
:101270000848001F0068C0F30140401C4600B5FB51
:10128000F6F902E0DFF8109000BF00BF4846BDE865
:10129000F0870000083802400024F40000127A00B1
:1012A000F8B504460CB90120F8BD207800F0010023
:1012B000002874D0F948006800F00C0004280DD014
:1012C000F648006800F00C00082813D1F348001F0E
:1012D000006800F48000B0F5800F0BD1EF480838AB
:1012E0000068C0F34040002859D06068002856D1FB
:1012F0000120D9E700BF6068B0F5803F08D1E7481A
:101300000838006840F48030E449083908601EE07D
:101310006068B0F5A02F0DD1E0480838006840F4AF
:101320008020DE49083908600846006840F48030B3
:1013300008600CE0D9480838006820F48030D749AC
:10134000083908600846006820F48020086000BF63
:10135000606890B1FFF744FB054606E0FFF740FBED
:10136000401B642801D903209EE7CC480838006858
:10137000C0F340400028F1D011E0FFF731FB0546F3
:1013800006E0FFF72DFB401B642801D903208BE703
:10139000C24808380068C0F340400028F1D12078E6
:1013A00000F0020002285FD1BC48006800F00C0089
:1013B00058B1BA48006800F00C0008281CD1B748A2
:1013C000001F006800F48000B0B9B4480838006815
:1013D000C0F3400020B1E068012801D0012063E79C
:1013E000AE480838006820F0F800216940EAC100E2
:1013F000AA490839086037E0E06800B30120A8492D
:101400000860FFF7EDFA054606E0FFF7E9FA401B32
:10141000022801D9032047E7A04808380068C0F334
:1014200040000028F1D09D480838006820F0F800FE
:10143000216940EAC10099490839086014E0002098
:1014400097490860FFF7CCFA054606E0FFF7C8FAAF
:10145000401B022801D9032026E79048083800687D
:10146000C0F340000028F1D1207800F008000828DF
:101470002CD16069A8B101208A490860FFF7B0FA51
:10148000054606E0FFF7ACFA401B022801D903200D
:101490000AE782486C300068C0F340000028F1D0B1
:1014A00014E000207F490860FFF79AFA054606E03D
:1014B000FFF796FA401B022801D90320F4E677488B
:1014C0006C300068C0F340000028F1D1207800F0B3
:1014D0000400042870D1002770483830006800F0FC
:1014E000805090B900BF002000906C4838300068F0
:1014F00040F080506949383108600846006800F0C3
:101500008050009000BF00BF01276748006800F4CA
:101510008070B0B96448006840F480706249086027
:10152000FFF75EFA054606E0FFF75AFA401B02286D
:1015300001D90320B8E65C48006800F480700028F8
:10154000F2D000BFA068012808D154486830006874
:1015500040F001005149683108601DE0A06805288D
:101560000DD14E486830006840F004004B496831A6
:1015700008600846006840F0010008600CE0474839
:101580006830006820F0010044496831086008466E
:10159000006820F00400086000BFA068A8B1FFF751
:1015A0001FFA054609E0FFF71BFA401B41F288319C
:1015B000884202D9032077E626E038486830006880
:1015C000C0F340000028EED013E0FFF709FA05460B
:1015D00008E0FFF705FA401B41F28831884201D943
:1015E000032061E62D4868300068C0F34000002801
:1015F000EFD1012F07D129483830006820F0805002
:1016000026493831086000BFA069002845D023482A
:10161000006800F00C0008285DD0A069022845D1C0
:1016200000201F490866FFF7DBF9054606E0FFF7D3
:10163000D7F9401B022801D9032035E6174808389E
:101640000068C0F340600028F1D1D4E907010843E5
:10165000616A40EA81110122A06AC2EB500041EAAE
:1016600000412C20005D41EA00600C49091F086020
:1016700001200B490866FFF7B3F9054606E0FFF7BE
:10168000AFF9401B022801D903200DE603480838B2
:101690000068C0F340600028F1D049E008380240FB
:1016A00000004742800E4742007000400020214960
:1016B0000866FFF795F9054606E0FFF791F9401B2C
:1016C000022801D90320EFE51B480068C0F3406001
:1016D0000028F2D12CE0A069012800D1E4E51648E9
:1016E000001D0668A069012820D006F48001E06989
:1016F00081421BD106F03F01206A814216D147F694
:10170000C0703040616AB0EB811F0FD106F44031E8
:101710000122A06AC2EB5000B1EB004F06D106F0E7
:1017200070612C20005DB1EB006F01D00120BBE5A2
:101730000020B9E5000047420038024070B5044679
:1017400001250CB9012070BD607F20B900202077F1
:10175000204600F045F80220607700BFCA202168CB
:10176000486253202168486200BF204601F0B9FC5E
:101770000546EDB9206880681849084021688860EE
:1017800021696068084361690843216889680843E2
:10179000216888602168E068086120680169208903
:1017A00041EA004021680861204601F0BFFC05467F
:1017B0006DB92068006C20F48020216808642068DE
:1017C000006CA1690843216808640120607700BFAC
:1017D000FF202168486200BF2846B4E7BFFF8FFFA3
:1017E0001FB5044600200090019002900390094923
:1017F000206888420CD102200090000203906846C5
:10180000FFF73EFB08B1FEF7A4FF01200249086084
:101810001FBD0000002800403C0E47422DE9F0416A
:1018200005460C4617464FF0000800BF287F0128E8
:1018300002D10220BDE8F0810120287700BF0220FC
:1018400068774FB9607800F01000102804D16078F4
:1018500000F0EF000A30607087B9E07801F033FCE7
:101860000304607801F02FFC43EA0023A07801F024
:101870002AFC0343207843EA403809E0E07800047A
:10188000617840EA0120A1780843217840EA413894
:1018900000BFCA202968486253202968486200BFF7
:1018A000284601F01EFC064646B90B4808EA00002F
:1018B00029684860284601F039FC06460EB9012027
:1018C000687700BFFF202968486200BF00BF002082
:1018D000287700BF3046ADE73FFFFF002DE9F0411C
:1018E00004460D4617464FF0000800BF207F012830
:1018F00002D10220BDE8F0810120207700BF022044
:101900006077CFB92068806800F0400000B102E045
:101910000020E87000BF287801F0D5FB0304687848
:1019200001F0D1FB43EA0023A87801F0CCFB03438C
:10193000E87843EA805812E02068806800F04000B0
:1019400000B102E00020E87000BF28780004697848
:1019500040EA0120A9780843E97840EA815800BFAD
:10196000CA202168486253202168486200BF20468F
:1019700001F0B7FB0646B6B9124808EA0000216834
:1019800008602068806820F4802021688860D5E99C
:10199000030108432168896808432168886020465C
:1019A00001F0C4FB06460EB90120607700BFFF209E
:1019B0002168486200BF00BF0020207700BF30468A
:1019C00098E700007F7F7F0070B5044600252068FF
:1019D000C06820F0A0002168C860FFF701F8054644
:1019E00007E0FEF7FDFF401BB0F57A7F01D9032029
:1019F00070BD2068C06800F020000028F1D00020F1
:101A0000F6E710B504460CB9012010BD606A38B97C
:101A10006068B0F5827F00D105E00021E16102E05D
:101A20000021216161610021A16294F8510028B96F
:101A3000002084F85000204600F048F8022084F886
:101A400051002068006820F0400021680860A088EC
:101A500000F48270218901F404410843A18901F452
:101A600000610843217C01F002010843217D01F05F
:101A700001010843218B01F400710843217F01F02B
:101A8000380108432021095D01F080010843218DC0
:101A900001F400510843216808600421A06901EAAB
:101AA000104094F8241001F01001084321684860A8
:101AB0002068C06920F400602168C861002060656A
:101AC000012084F8510000209FE7000010B586B087
:101AD0000446142101A8FEF7ADFB1B49206888428B
:101AE0002FD100BF002000901848006840F48050BB
:101AF000164908600846006800F48050009000BF56
:101B000000BF00BF0020009010481438006840F06B
:101B100001000E49143908600846006800F0010011
:101B2000009000BF00BFE020019002200290002042
:101B30000390032004900520059001A90448FEF7B6
:101B40004FFE06B010BD0000003001404438024096
:101B50000000024070B504462546681EB0F1807F43
:101B600001D301200FE0681E4FF0E02148610F21F2
:101B70004FF0FF3002F000F900204FF0E0218861C3
:101B800007200861002070BD7047704730B50246DD
:101B90000B4600BF92F83C00012801D1022030BD65
:101BA000012082F83C0000BF022082F83D0010684E
:101BB00044681068816824F0700418680443106851
:101BC0004460184D1068A8421BD01068B0F1804FD7
:101BD00017D0154D1068A84213D0144D1068A842B4
:101BE0000FD0134D1068A8420BD0124D1068A842B8
:101BF00007D0114D1068A84203D0104D1068A842BC
:101C000005D121F0800158680143106881600120EE
:101C100082F83D0000BF002082F83C0000BF00BFFA
:101C2000BDE7000000000140000400400008004043
:101C3000000C00400004014000400140001800403A
:101C400010B504460CB9012010BD94F83D0028B928
:101C5000002084F83C00204600F026F8022084F89A
:101C60003D00211D206801F0D3FC012084F84600CE
:101C700000BF84F83E0001213F200155402001555E
:101C80004120015500BF00BF012084F842004320DD
:101C90000155442001554520015500BF012084F81D
:101CA0003D000020D0E7000010B586B004461421A6
:101CB00001A8FEF7BFFA4E492068884238D100BF1C
:101CC000002000904B48006840F00100494908603E
:101CD0000846006800F00100009000BF00BF00BF90
:101CE0000020009043481438006840F0010041494A
:101CF000143908600846006800F00100009000BF39
:101D000000BF4FF470600190022002900390002009
:101D100004900120059001A93748FEF761FD0022DB
:101D200011461B20FFF75AF81B20FFF747F85CE02D
:101D30002068B0F1804F1AD100BF002000902D48DC
:101D4000001F006840F001002A49091F086008468A
:101D5000006800F00100009000BF00BF00221146A3
:101D60001C20FFF73BF81C20FFF728F83DE0234933
:101D70002068884239D100BF002000901D48001F14
:101D8000006840F004001B49091F0860084600680D
:101D900000F00400009000BF00BF00BF00200090D2
:101DA00014481438006840F00800124914390860DB
:101DB0000846006800F00800009000BF00BF4FF424
:101DC00070400190022002900390002004900220B5
:101DD000059001A90A48FEF703FD002211461E20C6
:101DE000FEF7FCFF1E20FEF7E9FF06B010BD000065
:101DF000000001404438024000000240000800405A
:101E0000000C0240014691F83D00012801D001205C
:101E10007047022081F83D000868C06840F001006A
:101E20000B68D8601A4B086898421BD00868B0F15C
:101E3000804F17D0174B0868984213D0164B08688C
:101E400098420FD0154B086898420BD0144B086885
:101E5000984207D0134B0868984203D0124B086889
:101E600098420CD10868806800F00702062A0CD05E
:101E70000868006840F001000B68186005E0086819
:101E8000006840F001000B6818600020C0E7000007
:101E9000000001400004004000080040000C004029
:101EA0000004014000400140001800402DE9F041CD
:101EB00004460D46002700BF94F83C00012802D1DB
:101EC0000220BDE8F081012084F83C0000BF022020
:101ED00084F83D002068866826F0770626F47F4661
:101EE000206886602868502833D00CDC202850D029
:101EF00004DC00284BD0102851D149E0302849D0CB
:101F000040284CD139E060282DD0702807D0B0F59A
:101F1000805F03D0B0F5005F41D10DE041E0D5E92D
:101F200002136A68206801F0F0FB2068866846F0BA
:101F300077062068866034E0D5E902136A68206875
:101F400001F0E3FB2068806840F4804021688860ED
:101F500027E0EA686968206801F0C8FC5021206821
:101F600001F0DEFB1DE0EA686968206801F01AFDF7
:101F70006021206801F0D4FB13E0EA6869682068FA
:101F800001F0B4FC4021206801F0CAFB09E000BF69
:101F900000BF00BF2968206801F0C2FB01E00127F3
:101FA00000BF00BF012084F83D0000BF002084F87E
:101FB0003C0000BF384684E770472DE9F0410446F5
:101FC0000D461646002700BF94F83C00012802D1B8
:101FD0000220BDE8F081012084F83C0000BF96B9E2
:101FE000EB68D5E90012206801F094FC2068806954
:101FF00020F00C002168886120688069A968084386
:102000002168886141E0042E13D1EB68D5E9001204
:10201000206801F0DBFC2068806920F440602168C2
:10202000886120688069A96840EA01202168886188
:102030002BE0082E12D1EB68D5E90012206801F0E0
:10204000E2FC2068C06920F00C002168C8612068AB
:10205000C069A96808432168C86116E00C2E13D135
:10206000EB68D5E90012206801F0E9FC2068C0693E
:1020700020F440602168C8612068C069A96840EA0E
:1020800001202168C86100E0012700BF002084F81A
:102090003C0000BF38469CE710B504460CB901204F
:1020A00010BD94F83D0028B9002084F83C0020467B
:1020B00000F025F8022084F83D00211D206801F081
:1020C000A7FA012084F8460000BF84F83E000121F1
:1020D0003F200155402001554120015500BF00BF60
:1020E000012084F842004320015544200155452039
:1020F000015500BF012084F83D000020D0E7704763
:102100002DE9F04304460D46002615B994F83E002B
:102110000BE0042D02D13F20005D06E0082D02D126
:102120004020005D01E04120005D804615B994F833
:1021300042000BE0042D02D14320005D06E0082D93
:1021400002D14420005D01E04520005D8146B8F1E8
:10215000010F02D1B9F1010F02D00120BDE8F083D7
:102160001DB9022084F83E000EE0042D03D10221A7
:102170003F20015508E0082D03D1022140200155E0
:1021800002E00221412001551DB9022084F84200DD
:102190000EE0042D03D102214320015508E0082D53
:1021A00003D102214420015502E0022145200155BE
:1021B00035B1042D0BD0082D10D00C2D1CD114E0FE
:1021C0002068C06840F002002168C86016E02068FE
:1021D000C06840F004002168C8600FE02068C06853
:1021E00040F008002168C86008E02068C06840F03E
:1021F00010002168C86001E0012600BF00BF86BB57
:1022000001222946206801F06FFA1A4920688842A5
:102210001BD02068B0F1804F17D017492068884242
:1022200013D01649206888420FD01549206888428B
:102230000BD014492068884207D01349206888428F
:1022400003D01249206888420CD12068806800F0D1
:102250000707062F0CD02068006840F001002168B5
:10226000086005E02068006840F00100216808600F
:10227000304673E7000001400004004000080040C1
:10228000000C0040000401400040014000180040E4
:1022900010B5044620680069C0F34000D8B120683A
:1022A000C068C0F34000B0B16FF00200216808615F
:1022B000012020772068806900F0030018B12046D3
:1022C000FFF77AFE05E0204600F0FCF8204600F01B
:1022D000C9F90020207720680069C0F38000D8B1D8
:1022E0002068C068C0F38000B0B16FF004002168BE
:1022F0000861022020772068806900F4407018B1DE
:102300002046FFF759FE05E0204600F0DBF82046A6
:1023100000F0A8F90020207720680069C0F3C00011
:10232000D8B12068C068C0F3C000B0B16FF0080039
:1023300021680861042020772068C06900F003004C
:1023400018B12046FFF738FE05E0204600F0BAF845
:10235000204600F087F90020207720680069C0F34C
:102360000010D8B12068C068C0F30010B0B16FF0A1
:10237000100021680861082020772068C06900F4F7
:10238000407018B12046FFF717FE05E0204600F028
:1023900099F8204600F066F900202077206800694F
:1023A00000F0010058B12068C06800F0010030B1B1
:1023B0006FF0010021680861204600F0DBF9206819
:1023C0000069C0F3C01058B12068C068C0F3C010E5
:1023D00030B16FF08000216808612046FFF7D4FB20
:1023E00020680069C0F3801058B12068C068C0F34D
:1023F000801030B16FF0400021680861204600F085
:10240000D3F920680069C0F3401058B12068C06853
:10241000C0F3401030B16FF0200021680861204601
:10242000FFF7B3FB10BD000010B586B004461421C1
:1024300001A8FDF7FFFE1F492068884238D100BF80
:10244000002000901C48006840F002001A49086013
:102450000846006800F00200009000BF00BF00BF07
:10246000002000900846006840F00400086008461C
:10247000006800F00400009000BF00BF0120019040
:10248000022002900020039004900220059001A9F0
:102490000A48FEF7A5F9C020019002200290002012
:1024A000039004900220059001A90548FEF798F9D1
:1024B00006B010BD00040040303802400004024065
:1024C0000008024070472DE9F04104460D461646CB
:1024D000002700BF94F83C00012802D10220BDE88B
:1024E000F081012084F83C0000BF36B1042E1BD0DF
:1024F000082E31D00C2E5ED145E02946206801F02F
:1025000019F92068806940F0080021688861206816
:10251000806920F004002168886120688069296949
:1025200008432168886148E02946206801F03AF9AB
:102530002068806940F400602168886120688069B3
:1025400020F480602168886120688069296940EAF8
:1025500001202168886130E02946206801F060F997
:102560002068C06940F008002168C8612068C0691F
:1025700020F004002168C8612068C0692969084307
:102580002168C86119E02946206801F085F92068B2
:10259000C06940F400602168C8612068C06920F407
:1025A00080602168C8612068C069296940EA01200B
:1025B0002168C86101E0012700BF00BF00BF002003
:1025C00084F83C0000BF384689E710B504460CB9D2
:1025D000012010BD94F83D0028B9002084F83C008B
:1025E000204600F025F8022084F83D00211D2068D7
:1025F00001F00EF8012084F8460000BF84F83E0088
:1026000001213F200155402001554120015500BFC7
:1026100000BF012084F842004320015544200155A9
:102620004520015500BF012084F83D000020D0E77F
:1026300008B50A4A016891420FD100BF00210091FC
:102640000749096841F00201054A1160114609680D
:1026500001F00201009100BF00BF08BD000400406E
:10266000403802407047000070B504460D4615B969
:1026700094F83E000BE0042D02D13F20005D06E0FF
:10268000082D02D14020005D01E04120005D0128BD
:1026900001D0012070BD1DB9022084F83E000EE07B
:1026A000042D03D102213F20015508E0082D03D15C
:1026B00002214020015502E0022141200155012262
:1026C0002946206801F010F823492068884203D089
:1026D00022492068884201D1012000E0002028B171
:1026E0002068406C40F40040216848641A49206822
:1026F00088421BD02068B0F1804F17D0184920685D
:10270000884213D01749206888420FD016492068A4
:1027100088420BD011492068884207D013492068AD
:10272000884203D01249206888420CD12068806812
:1027300000F00706062E0CD02068006840F001006B
:102740002168086005E02068006840F00100216809
:10275000086000209EE700000000014000040140E6
:102760000004004000080040000C00400040014010
:102770000018004070470246002031B1042907D0FC
:10278000082908D00C290CD108E01368586B09E01F
:102790001368986B06E01368D86B03E01368186C35
:1027A00000E000BF00BF7047704710B504460CB989
:1027B000012010BDA06900B100E000BF94F83D0009
:1027C00028B9002084F83C00204600F027F8242097
:1027D00084F83D002068C06820F400502168C8607B
:1027E000204601F04BF92068006920F490402168F0
:1027F00008612068406920F02A002168486120684B
:10280000C06840F400502168C86000202064202087
:1028100084F83D0084F83E000020CAE710B586B079
:102820000446142101A8FDF705FD5249206888429D
:1028300030D100BF002000904F48006840F01000E9
:102840004D4908600846006800F01000009000BF85
:1028500000BF00BF0020009047481438006840F0D7
:1028600002004549143908600846006800F002007B
:10287000009000BF00BFC020019002200290002005
:102880000390032004900720059001A93B48FDF721
:10289000A7FF6DE03A492068884232D100BF00208E
:1028A00000903548001F006840F400303249091F8D
:1028B00008600846006800F40030009000BF00BFC8
:1028C00000BF002000902C481438006840F0010040
:1028D0002949143908600846006800F0010000909A
:1028E00000BF00BF0C200190022002900020039046
:1028F000032004900720059001A92248FDF770FFEE
:1029000036E021492068884232D100BF0020009083
:102910001948001F006840F480201749091F08600B
:102920000846006800F48020009000BF00BF00BF90
:102930000020009010481438006840F008000E494C
:10294000143908600846006800F00800009000BFD5
:1029500000BF4FF4407001900220029000200390CD
:10296000032004900720059001A90848FDF738FFCF
:1029700006B010BD0010014044380240000402407F
:10298000004400400000024000480040000C0240AB
:102990002DE9F84F04460E46174699464FF0000AB7
:1029A00094F83D0020285AD106B117B90120BDE89E
:1029B000F88F00BF94F83C00012801D10220F6E70F
:1029C000012084F83C0000BF00202064212084F80E
:1029D0003D00FEF705F88246A784E784A068B0F5BD
:1029E000805F04D1206910B90025B04602E0354669
:1029F0004FF0000800BF002084F83C0000BF1BE03F
:102A00005346002280212046CDF8009001F04CF979
:102A100008B10320CBE745B9B8F80000C0F30800BF
:102A20002168486008F1020803E0287821684860BE
:102A30006D1CE08C401EE084E08C0028E0D1534601
:102A4000002240212046CDF8009001F02DF908B178
:102A50000320ACE7202084F83D000020A7E70220F7
:102A6000A5E700BFFEE7000010B500212348FFF7EF
:102A700047FB04212148FFF743FB08211F48FFF7CC
:102A80003FFB0C211D48FFF73BFB00211C48FFF7D3
:102A900037FB04211A48FFF733FB08211848FFF7DA
:102AA0002FFB0C211648FFF72BFB15480068C06868
:102AB00040F0010012490968C86010480068C06809
:102AC00040F001000D490968C8600E48FFF79AF907
:102AD00000210D48FFF7C8FD04210B48FFF7C4FD96
:102AE00008210948FFF7C0FD962007490968C86317
:102AF00040F6B830FDF760FE10BD0000380200203F
:102B000060010020A8010020F001002000B587B07E
:102B1000142102A8FDF78EFB00BF002001903B4866
:102B2000006840F08000394908600846006800F0FD
:102B30008000019000BF00BF00BF00200190084648
:102B4000006840F0040008600846006800F00400D7
:102B5000019000BF00BF00BF002001900846006840
:102B600040F0010008600846006800F00100019094
:102B700000BF00BF00BF002001900846006840F081
:102B8000020008600846006800F00200019000BFE3
:102B900000BF00BF002001900846006840F0080018
:102BA00008600846006800F00800019000BF00BF00
:102BB000002202211648FDF70DFF002210211548C2
:102BC000FDF708FF022002900120039002200490EC
:102BD0000020059002A90E48FDF702FE0420029095
:102BE000002003900220049002A90948FDF7F8FD97
:102BF000102002900120039000200490059002A96B
:102C00000448FDF7EDFD07B000BD0000303802407C
:102C1000000802400000024010B50B480B49086054
:102C20000B484860002109488160C1604FF4804131
:102C30000161002141618161C1610162FDF7D6FE40
:102C400008B1FDF786FD10BD005400404000002093
:102C5000A086010010B50B480B4908600B4848607E
:102C6000002109488160C1604FF480410161002169
:102C700041618161C1610162FDF7B8FE08B1FDF7F4
:102C800068FD10BD0058004094000020A08601009F
:102C900000B587B0142102A8FDF7CCFA00200190FE
:102CA0001D481E490860002048607F211B48816044
:102CB000FF21C1600021016141618161FEF73EFD9C
:102CC00008B1FDF746FD09208DF8080000208DF8B9
:102CD00009008DF80A0005900690012202A90F480C
:102CE000FEF7FCFD08B1FDF734FD02208DF804006D
:102CF00007208DF8050019208DF8060022208DF898
:102D00000700012201A90548FEF788FD08B1FDF77B
:102D100020FD07B000BD000000280040E8000020B2
:102D200010B50E480E4908604FF4827048600021CB
:102D30000B488160C160016141614FF400718161A4
:102D40000021C1610162416281620A21C162FEF714
:102D500058FE08B1FDF7FDFC10BD00000030014039
:102D60000801002000B58BB0002007900890099062
:102D70000A900590069001900290039004902C48D0
:102D80002C4908605320486000212A4881604FF692
:102D9000FF71C16000210161416180218161FEF705
:102DA0004FFF08B1FDF7D5FC4FF48050079007A9FD
:102DB0002048FFF77BF808B1FDF7CBFC1D48FFF773
:102DC0006BF908B1FDF7C5FC00200590069005A938
:102DD0001848FEF7DBFE08B1FDF7BBFC0A200190A6
:102DE00001200290002003900490002201A91148C4
:102DF000FFF7E3F808B1FDF7ACFC042201A90D4888
:102E0000FFF7DBF808B1FDF7A4FC082201A9094887
:102E1000FFF7D3F808B1FDF79CFC0C2201A9054887
:102E2000FFF7CBF808B1FDF794FC0BB000BD000034
:102E3000000001406001002000B587B00020039031
:102E4000049005900690019002904FF08040134945
:102E50000860532048600021104881601049C1601B
:102E6000002101618161FEF7EBFE08B1FDF771FC05
:102E70004FF48050039003A90848FFF717F808B1F2
:102E8000FDF767FC00200190029001A90348FEF7BE
:102E90007DFE08B1FDF75DFC07B000BDA801002074
:102EA0009F86010000B589B00020079008901C2182
:102EB0006846FDF7BFF921482149086040F24730D4
:102EC000486000211E48816040F64E01C16000212B
:102ED00001618161FFF779FB08B1FDF73AFC002041
:102EE0000790089007A91648FEF750FE08B1FDF7B5
:102EF00030FC602000909620019000200290049009
:102F0000002269460E48FFF7DEFA08B1FDF721FC02
:102F1000042269460A48FFF7D6FA08B1FDF719FC02
:102F2000082269460648FFF7CEFA08B1FDF711FC02
:102F30000348FFF779FA09B000BD00000004004023
:102F4000F001002000B58BB0002007900890099098
:102F50000A900590069001900290039004902B48EF
:102F60002B490860532048600021294881604FF6B2
:102F7000FF71C1600021016180218161FEF760FE67
:102F800008B1FDF7E6FB4FF48050079007A92048F1
:102F9000FEF78CFF08B1FDF7DCFB1D48FFF77CF85E
:102FA00008B1FDF7D6FB00200590069005A918484A
:102FB000FEF7ECFD08B1FDF7CCFB0A2001900120E3
:102FC0000290002003900490002201A91048FEF70F
:102FD000F4FF08B1FDF7BDFB042201A90C48FEF780
:102FE000ECFF08B1FDF7B5FB082201A90848FEF780
:102FF000E4FF08B1FDF7ADFB0C2201A90448FEF780
:10300000DCFF08B1FDF7A5FB0BB000BD00080040D8
:103010003802002010B50B480B4908604FF4E1302E
:103020004860002108488160C16001610C21416154
:1030300000218161C161FFF7B8FB08B1FDF789FB91
:1030400010BD0000001001408002002010B50B48A8
:103050000B4908604FF41650486000210848816011
:10306000C16001610C21416100218161C161FFF7F3
:103070009CFB08B1FDF76DFB10BD00000044004053
:10308000C402002010B50B480B4908604FF41650DD
:103090004860002108488160C16001610C214161E4
:1030A00000218161C161FFF780FB08B1FDF751FB91
:1030B00010BD0000004800400803002000BFFEE7EC
:1030C00000BFFEE770470146002204E0501CC2B278
:1030D000A1F10A00C1B20A29F8D2100741EA106032
:1030E000704770B50446002600252068C06800F0CF
:1030F0004000C8B92068C06840F080002168C860FE
:10310000FDF76EFC064608E0FDF76AFC801BB0F593
:103110007A7F02D90420607701252068C06800F01A
:10312000400008B9012DEFD1284670BD70B50446A6
:1031300000252068C06820F080002168C8602068F1
:10314000806800F0200030B92046FEF73DFC10B149
:10315000042060770125284670BD704710B5FDF743
:10316000B9FD10BD00B593B0302107A8FDF762F896
:10317000142102A8FDF75EF800BF00200190254849
:10318000006840F08050234908600846006800F05D
:103190008050019000BF00BF00BF002001901E487A
:1031A000006840F480401C4908600846006800F44C
:1031B0008040019000BF00BF092007904FF480308D
:1031C000089001200C9002200D9041050E910421E1
:1031D0000F91A8211091022111910721129107A8A6
:1031E000FEF75EF808B1FDF7B4FA0F200290022056
:1031F0000390002004904FF4A05005904FF48050AD
:103200000690052102A8FDF70BFF08B1FDF7A1FA12
:1032100013B000BD40380240007000400348006811
:1032200040F47000014908607047000088ED00E03C
:1032300010B56448006900F0020028B36FF0020086
:10324000604908616FF4007008615F48006900F42C
:10325000807030B100215D48FFF78DFA5C4908802D
:1032600012E000215948FFF786FA5A4908800846BB
:10327000008857490988884206DB56480088544927
:103280000988401A544908804E48006900F004003B
:1032900028B36FF004004B4908616FF400700861B7
:1032A0004948006900F4007030B104214748FFF735
:1032B00062FA4A49088012E004214448FFF75BFAA9
:1032C000474908800846008844490988884206DB47
:1032D0004348008841490988401A424908803948D2
:1032E000006900F0080028B36FF008003549086154
:1032F0006FF4007008613448006900F4806030B1F8
:1033000008213248FFF737FA374908801EE00821C4
:103310002E48FFF730FA35490880084600883249C0
:103320000988884207DB314800882F490988401AFC
:103330002F4908800AE02C4800884FF6FF71081AD0
:103340002A4909880844401C294908801D48006909
:1033500000F0100028B36FF010001A4908616FF4F4
:10336000007008611848006900F4006030B10C2159
:103370001648FFF700FA1F4908801EE00C21134889
:10338000FFF7F9F91C49088008460088194909889F
:10339000884207DB1848008816490988401A1749EF
:1033A00008800AE0134800884FF6FF71081A124996
:1033B00009880844401C114908800448FEF768FF4A
:1033C00010BD00000000014000000240600100202C
:1033D000100000201200002008000020140000202F
:1033E000160000200A000020180000201A0000200B
:1033F0000C0000201C0000201E0000200E000020F9
:1034000010B50248FEF744FF10BD0000A8010020DF
:1034100010B57048006800F0020028B36FF0020099
:103420006C4908606FF4007008606B48006800F435
:10343000805030B100216948FFF79DF96849088044
:103440001EE000216548FFF796F9664908800846A6
:10345000008863490988884207DB62480088604920
:103460000988401A604908800AE05D4800884FF6E4
:10347000FF71081A5B4909880844401C5A490880B2
:103480005448006800F0040028B36FF0040051496C
:1034900008606FF4007008604F48006800F4005046
:1034A00030B104214D48FFF766F9504908801EE00D
:1034B00004214A48FFF75FF94D4908800846008813
:1034C0004A490988884207DB4948008847490988F2
:1034D000401A484908800AE0444800884FF6FF71C6
:1034E000081A434909880844401C42490880394861
:1034F000006800F0080028B36FF008003549086044
:103500006FF4007008603448006800F4804030B107
:1035100008213248FFF72FF9374908801EE00821BB
:103520002E48FFF728F935490880084600883249B7
:103530000988884207DB314800882F490988401AEA
:103540002F4908800AE02C4800884FF6FF71081ABE
:103550002A4909880844401C294908801D480068F8
:1035600000F0100028B36FF002001A4908606FF4F1
:10357000007008601848006800F4004030B10C2169
:103580001648FFF7F8F81F4908801EE00C21134881
:10359000FFF7F1F81C490880084600881949098896
:1035A000884207DB1848008816490988401A1749DD
:1035B00008800AE0134800884FF6FF71081A124984
:1035C00009880844401C114908800448FEF760FE41
:1035D00010BD000010080040100C0240380200200E
:1035E00020000020220000200000002024000020F5
:1035F0002600002002000020280000202A000020D1
:10360000040000202C0000202E00002006000020D6
:1036100010B50268294B98420ED0B0F1804F0BD004
:10362000274B984208D0274B984205D0264B98420A
:1036300002D0264B984203D122F070024B681A4305
:103640001E4B984220D0B0F1804F1DD01C4B9842A9
:103650001AD01C4B984217D01B4B984214D01B4BCE
:10366000984211D01A4B98420ED01A4B98420BD068
:10367000194B984208D0194B984205D0184B9842E4
:1036800002D0184B984203D122F44072CB681A43FF
:1036900022F080034C6943EA040202608B68C36233
:1036A0000B688362054B984202D0084B984201D1C7
:1036B0000B6903630123436110BD0000000001405A
:1036C0000004004000080040000C004000040140DD
:1036D0000040014000440140004801400018004003
:1036E000001C00400020004030B501F01F050124FF
:1036F00004FA05F3046A9C430462046A01F01F059E
:1037000002FA05F52C43046230BD30B50C468168E1
:1037100021F47F4142EA032525432943816030BDDE
:103720000A46816821F0700142F007031943816065
:103730007047000030B5056A25F001050562026A90
:103740004368846924F0700424F003040D682C435A
:1037500022F002028D682A43104DA84200D103E0F6
:103760000F4DA84206D100BF22F00802CD682A43BF
:1037700022F00402094DA84202D0094DA84207D107
:1037800023F4807323F400734D692B438D692B431D
:10379000436084614D684563026230BD00000140B2
:1037A0000004014030B5056A25F010050562026A83
:1037B0004368846924F4E04424F440740D6844EAC6
:1037C000052422F020028D6842EA0512124DA8421B
:1037D00000D103E0114DA84207D100BF22F08002C2
:1037E000CD6842EA051222F040020B4DA84202D0F9
:1037F0000A4DA84209D123F4806323F400634D6984
:1038000043EA85038D6943EA8503436084614D681B
:103810008563026230BD00000000014000040140E9
:1038200030B5056A25F480750562026A4368C4698B
:1038300024F0700424F003040D682C4322F4007279
:103840008D6842EA0522124DA84200D103E0114DD5
:10385000A84207D100BF22F40062CD6842EA0522E7
:1038600022F480620A4DA84202D00A4DA84209D132
:1038700023F4805323F400534D6943EA05138D6903
:1038800043EA05134360C4614D68C563026230BDFD
:10389000000001400004014030B5056A25F4805560
:1038A0000562036A4468C26922F4E04222F440726D
:1038B0000D6842EA052223F400538D6843EA05337C
:1038C000084DA84202D0084DA84204D124F48044F7
:1038D0004D6944EA85144460C2614D680564036221
:1038E00030BD0000000001400004014030B50B462F
:1038F0001446026A056A25F001050562816921F016
:10390000F00141EA041122F00A021A4381610262C5
:1039100030BD000070B50C461546066A26F001065B
:1039200006628169026A184EB04214D0B0F1804F2D
:1039300011D0164EB0420ED0154EB0420BD0154EDF
:10394000B04208D0144EB04205D0144EB04202D05E
:10395000134EB04201D1012600E000261EB121F035
:103960000301294301E041F0010121F0F001F026BB
:1039700006EA0316314322F00A0204F00A06324333
:103980008161026270BD000000000140000400403F
:1039900000080040000C00400004014000400140CD
:1039A0000018004030B50B461446056A25F0100596
:1039B00005628169026A21F4704141EA043122F012
:1039C000A00242EA03128161026230BD70B50C466A
:1039D0001546066A26F0100606628169026A21F41D
:1039E000407141EA052121F470414FF4704606EA26
:1039F0000336314322F0A002A02606EA0416324321
:103A00008161026270BD70B50C461546066A26F4E7
:103A100080760662C169026A21F00301294321F020
:103A2000F001F02606EA0316314322F420624FF437
:103A3000206606EA04263243C161026270BD70B599
:103A40000C461546066A26F480560662C169026A6B
:103A500021F4407141EA052121F470414FF4704690
:103A600006EA0336314322F420424FF4204606EAA8
:103A700004363243C161026270BD00002DE9F84F87
:103A800004462068006920F44050E168084321683A
:103A900008612169A068084361690843E169084336
:103AA00000902068C06849F20C618843009908437F
:103AB0002168C8602068406920F44070A16908430B
:103AC0002168486176492068884203D0754920689A
:103AD000884203D1FDF77CFB814602E0FDF768FBDD
:103AE0008146E069B0F5004F6CD102206168A0FB0F
:103AF000015003461920A9FB007001462A463846AA
:103B0000FCF760FB6421B0FBF1F04FEA001A0220E1
:103B10006168A0FB01510B461920A9FB00712A46E0
:103B20003846FCF74FFB834602206168A0FB01503A
:103B300003461920A9FB00712A463846FCF742FBD0
:103B40006421B0FBF1F000EBC00101EB0010ABEB26
:103B50008000322101EBC0006421B0FBF1F000F0E5
:103B6000F8000AEB400A02206168A0FB01500346FE
:103B70001920A9FB007001462A463846FCF722FBB3
:103B8000834602206168A0FB015003461920A9FB6F
:103B900000712A463846FCF715FB6421B0FBF1F0B2
:103BA00000EBC00101EB0010ABEB8000322101EB18
:103BB000C0006421B0FBF1F000F007005044216820
:103BC00088606AE004206168A0FB01500346192068
:103BD000A9FB007001462A463846FCF7F3FA8246F4
:103BE00004206168A0FB015003461920A9FB007066
:103BF00001462A463846FCF7E5FA6421B0FBF1F0AD
:103C000000EBC00101EB0010AAEB8000322101EBB8
:103C100000106421B0FBF1F000F0F00A04206168AC
:103C2000A0FB017003461920A9FB00513A46284623
:103C3000FCF7C8FA6421B0FBF1F00AEB001A04208B
:103C40006168A0FB01510B461920A9FB00712A46AF
:103C50003846FCF7B7FA834604206168A0FB0150A0
:103C600003461920A9FB007001462A463846FCF796
:103C7000A9FA6421B0FBF1F000EBC00101EB0010E8
:103C8000ABEB8000322101EB00106421B0FBF1F0BE
:103C900000F00F00504421688860BDE8F88F0000F4
:103CA00000100140001401402DE9F04104460D468A
:103CB00017469846069E34E0701C88B32EB1FCF778
:103CC0008FFEA0EB0800B0422BD900BF00BF2168D7
:103CD0000C3151E8001F21F4D07021680C3141E80B
:103CE0000002002AF3D100BF00BF00BF21681431D9
:103CF00051E8001F21F001002168143141E8000261
:103D0000002AF3D100BF202084F83D0084F83E0053
:103D100000BF002084F83C0000BF0320BDE8F08114
:103D2000FFE7206800682840A84201D1012000E098
:103D30000020B842C0D00020F0E700BFFEE700003E
:103D40000FB4084B10B504A902AA039800F0FAF8C2
:103D5000044602A9002000F078FC204610BC5DF863
:103D600014FB00004B46000802480068C0F3022024
:103D7000704700000CED00E010B5002804DB0A07D6
:103D8000130E054A135406E00A07140E034A00F006
:103D90000F031B1FD45410BD00E400E018ED00E039
:103DA00002E008C8121F08C1002AFAD17047704704
:103DB000002001E001C1121F002AFBD17047000062
:103DC0002DE9FF5F82B00021DDE90430020DDDF84E
:103DD00040B0034318D044F61050A2F2FF324243E1
:103DE0001514119801281FD0A5EB0B00401C5FEAA9
:103DF000000A4FF000064E4FDFF83891B0465046AB
:103E000015D5CAF1000413E0119801244AA3012832
:103E100001D16FEA0B010298119AC0E90031C0E9A3
:103E2000024206B0BDE8F09FCBF10000DFE7044698
:103E30000021404A491842EB0450CDE9001012E03D
:103E4000E00707D032463B4640464946FCF7A4FA15
:103E50008046894632463B4610461946FCF79CFA96
:103E600006460F466410002CEAD1DDE90401DDE9C5
:103E70000023BAF1000F06DAFCF78EFA42464B46F1
:103E8000FCF78AFA05E0FCF7F9FA42464B46FCF7E4
:103E9000F5FA04460E460022284BFCF72DFC03D809
:103EA0004FF0FF30014607E00022254B2046314607
:103EB000FCF7CBF9FCF708FC102409E0002C0ADB26
:103EC0000A220023FCF77EF9039B30321A55641E48
:103ED00050EA0102F2D1641C039AC4F111031444A4
:103EE000119A012A03D0012208430DD10AE00843A8
:103EF00004D000204FF0110B119072E7A3EB0B05DB
:103F00006D1E0DE05B4504DD4FF0000205F101057B
:103F100004E003DA4FF00002A5F10105002AECD01D
:103F200002981199C0E90231C0E9004579E7000023
:103F3000000014400000F03F300000000000F0439B
:103F40000000E03F2DE9FF4F95B09A4688460646AF
:103F50000025EEE1252877D100242746F94A0121E2
:103F6000039400E0044316F8013F203B01FA03F0FC
:103F70001042F7D130782A2811D06FF02F03307813
:103F8000A0F13002092A16D8039A44F0020402EB89
:103F9000820203EB42021044761C0390EFE758F8CC
:103FA000042B0392002A03DA504244F40054039095
:103FB00044F00204761C30782E2816D116F8010F32
:103FC00044F004042A280DD06FF02F023078A0F1BD
:103FD0003003092B09D807EB870302EB4303C7180B
:103FE000761CF3E758F8047B761C30786C280FD0E9
:103FF00006DC4C2817D068280DD06A2814D104E0BC
:10400000742810D07A280FD10DE044F400140AE08F
:1040100044F4801401E044F440147278824202D1E6
:1040200004F58014761C761C307866280BD013DCDF
:10403000582877D009DC002875D04528F6D04628C6
:10404000F4D047281AD193E118E0632835D06428CA
:1040500079D0652812D18BE1702873D008DC6728ED
:10406000F1D069286FD06E280DD06F2806D1ACE052
:1040700073282CD0752874D0782853D052461799BD
:1040800090476D1C54E1C4F30250022809D0032864
:104090000DD0D8F8001004280DD00D6008F10408E8
:1040A00046E1D8F80010EA17C1E90052F6E7D8F85F
:1040B00000100D80F2E70D70F0E718F8041B8DF882
:1040C000001000208DF80100EB46012003E058F8B5
:1040D00004BB4FF0FF3061074FF0000102D40DE048
:1040E00009F101018946B9420FDA8145F8DB1BF875
:1040F00009100029F4D108E009F101018946814243
:10410000FADB1BF809100029F6D103985346A0EBFF
:10411000090721463846179A00F080FA284400EB38
:10412000090507E044E008E10DE01BF8010B5246E9
:1041300017999047B9F10109F7D2534621463846FD
:10414000179AF2E039E00A21C4F302524FF0000B53
:104150000091022A06D058F8040BC117032A09D08F
:104160000AE023E008F1070020F00702F2E802016C
:10417000904605E000B2C117042A01D140B2C11730
:10418000002906DA0A460021404261EB02012D2295
:1041900002E0220504D52B228DF80420012203E041
:1041A000E20701D02022F7E7914657E00A2100E01C
:1041B00010214FF0000B00910BE010214FF0000B8D
:1041C00044F004040827009103E008204FF0000B9E
:1041D0000090C4F30252022A05D058F8040B0021C3
:1041E000032A08D008E008F1070020F00702F2E8EF
:1041F0000201904603E080B2042A00D1C0B24FF021
:10420000000922072AD53278702A07D0DDF800C0CD
:104210008CF0100C5CEA0B0C05D00EE040228DF8FF
:104220000420012208E050EA010306D030238DF873
:1042300004308DF8052002229146009B83F008038C
:1042400053EA0B030AD150EA010201D1620705D5F6
:1042500030228DF804204FF001097F1E3278582A51
:1042600004D039A20C920CAA02920BE03BA2F9E70F
:104270005B46009AFBF7A6FF0C9B9B5C029A521EC2
:104280000292137050EA0102F2D1029804A9081AAE
:1042900000F1200B600702D524F4803400E00127F0
:1042A0005F4502DDA7EB0B0000E0002000EB0B01F7
:1042B000009003984944401A0390E00306D4534603
:1042C0002146179A039800F0A9F90544002706E053
:1042D00001A85246C05D179990476D1C7F1C4F4541
:1042E000F6DBE0030CD553462146179A039800F0FD
:1042F00095F9054404E030205246179990476D1C0B
:104300000099481E00900029F5DC08E00298029907
:1043100052460078491C0291179990476D1CBBF1D9
:104320000001ABF1010BF1DC5BE100F065F9054444
:10433000761C307800287FF40DAE19B02846BDE811
:10434000F08F000009280100303132333435363720
:1043500038396162636465660000000030313233D1
:104360003435363738394142434445460000000071
:10437000600700D4062708F1070020F00700F0E8E6
:104380000223804603F0004C5FEA0C0001D097A0A6
:1043900009E0200501D596A005E0E00701D095A031
:1043A00001E0AFF24C001390307823F00043652811
:1043B0000CD006DC452809D046281DD047287FD1DF
:1043C0003BE0662818D067287AD136E00021112F0B
:1043D00001DB112000E0781CCDE9000104A90CA844
:1043E000FFF7EEFCDDE90D010C9A4FF0000B07F131
:1043F0000109109200914EE04FF000400097CDE986
:10440000011004A90CA8FFF7DBFCDDE90D020C9BF1
:104410000F994FF0000B91461093009211B9791C3F
:1044200000EB0109B7EB090003D4C0F1FF3B07F132
:104430000109A9EB0700019042E0012F00DA0127F2
:104440000021112F01DD112000E03846CDE90001E7
:1044500004A90CA8FFF7B4FCDDE90D010C9A00914A
:104460004FF0000BB946109221070FD4009A4A452D
:1044700003DA914601E0A9F10109B9F1010F05DD67
:10448000109AA9F10101515C3029F4D0B84202DA46
:1044900010F1040F03DA0121CDE9011010E000282A
:1044A00003DC8344A9EB000102E0411C494500DD27
:1044B0008946A0EB0B00401C01904FF00040029099
:1044C000200705D40198484502DB4FF0FF300190EA
:1044D00000208DF84B0002980DF14B07B0F1004F12
:1044E00025D002200C902B200D90029800280CDA89
:1044F000404202902D200D9007E00A210298FCF71F
:104500003FF83031029007F8011D0C99481E0C90BD
:104510000029F2DC02980028EFD1791E0D9808706E
:10452000307800F0200040F0450007F8020D11A897
:10453000C01BC01D02901398007800B1012000EB51
:104540000901019801EBE071029801440398401AB7
:10455000401E0390E00306D453462146179A039861
:1045600000F05CF805441398007818B1524617998A
:1045700090476D1CE00323D553462146179A0398B4
:1045800000F04CF805441BE0BBF1000F07DB00987E
:10459000584504DD1098179910F80B0001E01799A1
:1045A00030205246904701980BF1010B401E05F157
:1045B0000105019004D12E205246179990476D1C99
:1045C000B9F10001A9F10109DEDC05E017F8010BE2
:1045D0005246179990476D1C0299481E0290002977
:1045E000F4DC53462146179A03989EE62D000000FE
:1045F0002B000000200000002DE9F04104460025BA
:104600001E461746880404D405E039462020B047EA
:104610006D1C641EF9D52846BDE8F0812DE9F041F6
:10462000044600251E469046C80301D5302700E009
:104630002027880404D505E041463846B0476D1C64
:10464000641EF9D52846BDE8F0810A68531C0B604A
:10465000107070472DED028B00BF00BF00BF9FEDB3
:10466000140AB0EE408AFCF741FBFEF77BFDFEF733
:104670004DFAFEF717FCFEF7CDFCFEF7E7FCFEF760
:1046800001FDFEF7C9FAFEF703FBFEF7E3FAFEF7BA
:1046900069FBFEF757FCFEF743FBFEF7CDFBFEF789
:1046A000E3F903E0B0EE480AFCF756F8FAE7000039
:1046B000560E494000000000000000000102030403
:1046C000060708090000000001020304EC46000888
:1046D0000000002040000000A03D00082C4700081A
:1046E0004000002010130000B03D00080000000052
:1046F00000000000000000000000000000000000BA
:1047000000000000000000000000000000000000A9
:104710000000000000000000000000000000000099
:0C47200010000000010000000024F40064
:040000050800018965
:00000001FF
